{
  "_format": "hh-sol-artifact-1",
  "contractName": "IdentityUpgradeable",
  "sourceName": "contracts/IdentityUpgradeable.sol",
  "abi": [
    {
      "anonymous": false,
      "inputs": [
        {
          "indexed": true,
          "internalType": "address",
          "name": "manager",
          "type": "address"
        },
        {
          "indexed": true,
          "internalType": "address",
          "name": "initiator",
          "type": "address"
        },
        {
          "indexed": false,
          "internalType": "uint256",
          "name": "identityID",
          "type": "uint256"
        }
      ],
      "name": "AddAddressToIdentity",
      "type": "event"
    },
    {
      "anonymous": false,
      "inputs": [
        {
          "indexed": true,
          "internalType": "address",
          "name": "manager",
          "type": "address"
        },
        {
          "indexed": false,
          "internalType": "string",
          "name": "externalAddress",
          "type": "string"
        },
        {
          "indexed": false,
          "internalType": "uint256",
          "name": "networkID",
          "type": "uint256"
        },
        {
          "indexed": false,
          "internalType": "uint256",
          "name": "identityID",
          "type": "uint256"
        }
      ],
      "name": "AddExternalAddressToIdentity",
      "type": "event"
    },
    {
      "anonymous": false,
      "inputs": [
        {
          "indexed": true,
          "internalType": "address",
          "name": "initiator",
          "type": "address"
        },
        {
          "indexed": false,
          "internalType": "uint256",
          "name": "identityID",
          "type": "uint256"
        },
        {
          "indexed": false,
          "internalType": "uint256",
          "name": "networkID",
          "type": "uint256"
        }
      ],
      "name": "AddExternalIdentityMapping",
      "type": "event"
    },
    {
      "anonymous": false,
      "inputs": [
        {
          "indexed": true,
          "internalType": "address",
          "name": "initiator",
          "type": "address"
        },
        {
          "indexed": false,
          "internalType": "uint256",
          "name": "identityID",
          "type": "uint256"
        }
      ],
      "name": "AddIdentityMapping",
      "type": "event"
    },
    {
      "anonymous": false,
      "inputs": [
        {
          "indexed": true,
          "internalType": "address",
          "name": "manager",
          "type": "address"
        },
        {
          "indexed": true,
          "internalType": "address",
          "name": "targetAddress",
          "type": "address"
        },
        {
          "indexed": false,
          "internalType": "uint256",
          "name": "identityID",
          "type": "uint256"
        }
      ],
      "name": "RemoveAddressFromIdentity",
      "type": "event"
    },
    {
      "anonymous": false,
      "inputs": [
        {
          "indexed": true,
          "internalType": "address",
          "name": "manager",
          "type": "address"
        },
        {
          "indexed": false,
          "internalType": "string",
          "name": "externalAddress",
          "type": "string"
        },
        {
          "indexed": false,
          "internalType": "uint256",
          "name": "networkID",
          "type": "uint256"
        },
        {
          "indexed": false,
          "internalType": "uint256",
          "name": "identityID",
          "type": "uint256"
        }
      ],
      "name": "RemoveExternalAddressFromIdentity",
      "type": "event"
    },
    {
      "anonymous": false,
      "inputs": [
        {
          "indexed": true,
          "internalType": "address",
          "name": "creator",
          "type": "address"
        },
        {
          "indexed": false,
          "internalType": "uint256",
          "name": "identityID",
          "type": "uint256"
        },
        {
          "indexed": false,
          "internalType": "string",
          "name": "contentID",
          "type": "string"
        },
        {
          "indexed": false,
          "internalType": "string",
          "name": "tagContentID",
          "type": "string"
        }
      ],
      "name": "SetIdentity",
      "type": "event"
    },
    {
      "inputs": [
        {
          "internalType": "address",
          "name": "altAddress",
          "type": "address"
        }
      ],
      "name": "addAddressToIdentity",
      "outputs": [],
      "stateMutability": "payable",
      "type": "function"
    },
    {
      "inputs": [
        {
          "internalType": "uint256",
          "name": "networkID",
          "type": "uint256"
        },
        {
          "internalType": "string",
          "name": "externalAddress",
          "type": "string"
        }
      ],
      "name": "addExternalAddressToIdentity",
      "outputs": [],
      "stateMutability": "payable",
      "type": "function"
    },
    {
      "inputs": [
        {
          "internalType": "uint256",
          "name": "identityID",
          "type": "uint256"
        },
        {
          "internalType": "uint256",
          "name": "networkID",
          "type": "uint256"
        }
      ],
      "name": "addExternalIdentityMapping",
      "outputs": [],
      "stateMutability": "payable",
      "type": "function"
    },
    {
      "inputs": [
        {
          "internalType": "uint256",
          "name": "identityID",
          "type": "uint256"
        }
      ],
      "name": "addIdentityMapping",
      "outputs": [],
      "stateMutability": "payable",
      "type": "function"
    },
    {
      "inputs": [
        {
          "internalType": "address",
          "name": "",
          "type": "address"
        }
      ],
      "name": "addressExternalIdentityMapping",
      "outputs": [
        {
          "internalType": "uint256",
          "name": "contentID",
          "type": "uint256"
        },
        {
          "internalType": "uint256",
          "name": "networkID",
          "type": "uint256"
        }
      ],
      "stateMutability": "view",
      "type": "function"
    },
    {
      "inputs": [
        {
          "internalType": "address",
          "name": "",
          "type": "address"
        }
      ],
      "name": "addressIdentityMapping",
      "outputs": [
        {
          "internalType": "uint256",
          "name": "",
          "type": "uint256"
        }
      ],
      "stateMutability": "view",
      "type": "function"
    },
    {
      "inputs": [
        {
          "internalType": "address",
          "name": "",
          "type": "address"
        }
      ],
      "name": "addressIdentityPendingMapping",
      "outputs": [
        {
          "internalType": "uint256",
          "name": "",
          "type": "uint256"
        }
      ],
      "stateMutability": "view",
      "type": "function"
    },
    {
      "inputs": [],
      "name": "adminContractAddress",
      "outputs": [
        {
          "internalType": "address",
          "name": "",
          "type": "address"
        }
      ],
      "stateMutability": "view",
      "type": "function"
    },
    {
      "inputs": [
        {
          "internalType": "string",
          "name": "contentID",
          "type": "string"
        },
        {
          "internalType": "string",
          "name": "tagContentID",
          "type": "string"
        }
      ],
      "name": "createIdentity",
      "outputs": [],
      "stateMutability": "payable",
      "type": "function"
    },
    {
      "inputs": [
        {
          "internalType": "string",
          "name": "contentID",
          "type": "string"
        },
        {
          "internalType": "string",
          "name": "tagContentID",
          "type": "string"
        },
        {
          "components": [
            {
              "internalType": "bool",
              "name": "permission",
              "type": "bool"
            },
            {
              "internalType": "uint256",
              "name": "deadline",
              "type": "uint256"
            },
            {
              "internalType": "uint8",
              "name": "v",
              "type": "uint8"
            },
            {
              "internalType": "bytes32",
              "name": "r",
              "type": "bytes32"
            },
            {
              "internalType": "bytes32",
              "name": "s",
              "type": "bytes32"
            }
          ],
          "internalType": "struct IAppUpgradeable.PermSig",
          "name": "permSig",
          "type": "tuple"
        }
      ],
      "name": "createIdentityWithPermission",
      "outputs": [],
      "stateMutability": "payable",
      "type": "function"
    },
    {
      "inputs": [
        {
          "internalType": "uint256",
          "name": "",
          "type": "uint256"
        },
        {
          "internalType": "string",
          "name": "",
          "type": "string"
        }
      ],
      "name": "externalAddressIdentityMapping",
      "outputs": [
        {
          "internalType": "uint256",
          "name": "",
          "type": "uint256"
        }
      ],
      "stateMutability": "view",
      "type": "function"
    },
    {
      "inputs": [
        {
          "internalType": "uint256",
          "name": "identityID",
          "type": "uint256"
        }
      ],
      "name": "getAddressNumberfromIdentity",
      "outputs": [
        {
          "internalType": "uint256",
          "name": "addressNumber",
          "type": "uint256"
        }
      ],
      "stateMutability": "view",
      "type": "function"
    },
    {
      "inputs": [],
      "name": "getAdminContractAddress",
      "outputs": [
        {
          "internalType": "address",
          "name": "",
          "type": "address"
        }
      ],
      "stateMutability": "view",
      "type": "function"
    },
    {
      "inputs": [
        {
          "internalType": "uint256",
          "name": "identityID",
          "type": "uint256"
        }
      ],
      "name": "getContentID",
      "outputs": [
        {
          "internalType": "string",
          "name": "contentID",
          "type": "string"
        }
      ],
      "stateMutability": "view",
      "type": "function"
    },
    {
      "inputs": [
        {
          "internalType": "uint256",
          "name": "identityID",
          "type": "uint256"
        }
      ],
      "name": "getExternalAddressNumberfromIdentity",
      "outputs": [
        {
          "internalType": "uint256",
          "name": "addressNumber",
          "type": "uint256"
        }
      ],
      "stateMutability": "view",
      "type": "function"
    },
    {
      "inputs": [
        {
          "internalType": "uint256",
          "name": "limit",
          "type": "uint256"
        },
        {
          "internalType": "uint256",
          "name": "skip",
          "type": "uint256"
        }
      ],
      "name": "getIdentites",
      "outputs": [
        {
          "components": [
            {
              "internalType": "string",
              "name": "contentID",
              "type": "string"
            }
          ],
          "internalType": "struct IdentityUpgradeable.Identity[]",
          "name": "",
          "type": "tuple[]"
        }
      ],
      "stateMutability": "view",
      "type": "function"
    },
    {
      "inputs": [],
      "name": "getIdentitiesCount",
      "outputs": [
        {
          "internalType": "uint256",
          "name": "count",
          "type": "uint256"
        }
      ],
      "stateMutability": "view",
      "type": "function"
    },
    {
      "inputs": [
        {
          "internalType": "address",
          "name": "owner",
          "type": "address"
        }
      ],
      "name": "getIdentityfromAddress",
      "outputs": [
        {
          "internalType": "uint256",
          "name": "_identityID",
          "type": "uint256"
        },
        {
          "components": [
            {
              "internalType": "string",
              "name": "contentID",
              "type": "string"
            }
          ],
          "internalType": "struct IdentityUpgradeable.Identity",
          "name": "_identity",
          "type": "tuple"
        }
      ],
      "stateMutability": "view",
      "type": "function"
    },
    {
      "inputs": [
        {
          "internalType": "string",
          "name": "owner",
          "type": "string"
        },
        {
          "internalType": "uint256",
          "name": "networkID",
          "type": "uint256"
        }
      ],
      "name": "getIdentityfromExternalAddress",
      "outputs": [
        {
          "internalType": "uint256",
          "name": "_identityID",
          "type": "uint256"
        },
        {
          "components": [
            {
              "internalType": "string",
              "name": "contentID",
              "type": "string"
            }
          ],
          "internalType": "struct IdentityUpgradeable.Identity",
          "name": "_identity",
          "type": "tuple"
        }
      ],
      "stateMutability": "view",
      "type": "function"
    },
    {
      "inputs": [
        {
          "internalType": "uint256",
          "name": "identityID",
          "type": "uint256"
        }
      ],
      "name": "getIdentityfromID",
      "outputs": [
        {
          "components": [
            {
              "internalType": "string",
              "name": "contentID",
              "type": "string"
            }
          ],
          "internalType": "struct IdentityUpgradeable.Identity",
          "name": "",
          "type": "tuple"
        }
      ],
      "stateMutability": "view",
      "type": "function"
    },
    {
      "inputs": [
        {
          "internalType": "uint256",
          "name": "",
          "type": "uint256"
        }
      ],
      "name": "identities",
      "outputs": [
        {
          "internalType": "string",
          "name": "contentID",
          "type": "string"
        }
      ],
      "stateMutability": "view",
      "type": "function"
    },
    {
      "inputs": [
        {
          "internalType": "uint256",
          "name": "",
          "type": "uint256"
        }
      ],
      "name": "identityAddressCountMapping",
      "outputs": [
        {
          "internalType": "uint256",
          "name": "",
          "type": "uint256"
        }
      ],
      "stateMutability": "view",
      "type": "function"
    },
    {
      "inputs": [
        {
          "internalType": "uint256",
          "name": "",
          "type": "uint256"
        },
        {
          "internalType": "address",
          "name": "",
          "type": "address"
        }
      ],
      "name": "identityAddressExistenceMapping",
      "outputs": [
        {
          "internalType": "uint256",
          "name": "",
          "type": "uint256"
        }
      ],
      "stateMutability": "view",
      "type": "function"
    },
    {
      "inputs": [
        {
          "internalType": "uint256",
          "name": "",
          "type": "uint256"
        },
        {
          "internalType": "uint256",
          "name": "",
          "type": "uint256"
        }
      ],
      "name": "identityAddressMapping",
      "outputs": [
        {
          "internalType": "address",
          "name": "",
          "type": "address"
        }
      ],
      "stateMutability": "view",
      "type": "function"
    },
    {
      "inputs": [
        {
          "internalType": "uint256",
          "name": "",
          "type": "uint256"
        }
      ],
      "name": "identityExternalAddressCountMapping",
      "outputs": [
        {
          "internalType": "uint256",
          "name": "",
          "type": "uint256"
        }
      ],
      "stateMutability": "view",
      "type": "function"
    },
    {
      "inputs": [
        {
          "internalType": "uint256",
          "name": "",
          "type": "uint256"
        },
        {
          "internalType": "uint256",
          "name": "",
          "type": "uint256"
        },
        {
          "internalType": "string",
          "name": "",
          "type": "string"
        }
      ],
      "name": "identityExternalAddressExistenceMapping",
      "outputs": [
        {
          "internalType": "uint256",
          "name": "",
          "type": "uint256"
        }
      ],
      "stateMutability": "view",
      "type": "function"
    },
    {
      "inputs": [
        {
          "internalType": "uint256",
          "name": "",
          "type": "uint256"
        },
        {
          "internalType": "uint256",
          "name": "",
          "type": "uint256"
        }
      ],
      "name": "identityExternalAddressMapping",
      "outputs": [
        {
          "internalType": "string",
          "name": "addressOrPubKey",
          "type": "string"
        },
        {
          "internalType": "uint256",
          "name": "networkID",
          "type": "uint256"
        }
      ],
      "stateMutability": "view",
      "type": "function"
    },
    {
      "inputs": [
        {
          "internalType": "address",
          "name": "forwarder",
          "type": "address"
        },
        {
          "internalType": "address",
          "name": "adminContract",
          "type": "address"
        }
      ],
      "name": "initialize",
      "outputs": [],
      "stateMutability": "nonpayable",
      "type": "function"
    },
    {
      "inputs": [
        {
          "internalType": "address",
          "name": "forwarder",
          "type": "address"
        }
      ],
      "name": "isTrustedForwarder",
      "outputs": [
        {
          "internalType": "bool",
          "name": "",
          "type": "bool"
        }
      ],
      "stateMutability": "view",
      "type": "function"
    },
    {
      "inputs": [
        {
          "internalType": "address",
          "name": "altAddress",
          "type": "address"
        }
      ],
      "name": "removeAddressFromIdentity",
      "outputs": [],
      "stateMutability": "payable",
      "type": "function"
    },
    {
      "inputs": [
        {
          "internalType": "uint256",
          "name": "networkID",
          "type": "uint256"
        },
        {
          "internalType": "string",
          "name": "externalAddress",
          "type": "string"
        }
      ],
      "name": "removeExternalAddressFromIdentity",
      "outputs": [],
      "stateMutability": "payable",
      "type": "function"
    },
    {
      "inputs": [],
      "name": "removeExternalIdentityMapping",
      "outputs": [],
      "stateMutability": "payable",
      "type": "function"
    },
    {
      "inputs": [],
      "name": "trustedForwarder",
      "outputs": [
        {
          "internalType": "address",
          "name": "",
          "type": "address"
        }
      ],
      "stateMutability": "view",
      "type": "function"
    },
    {
      "inputs": [
        {
          "internalType": "string",
          "name": "contentID",
          "type": "string"
        },
        {
          "internalType": "string",
          "name": "tagContentID",
          "type": "string"
        }
      ],
      "name": "updateIdentity",
      "outputs": [],
      "stateMutability": "payable",
      "type": "function"
    },
    {
      "inputs": [
        {
          "internalType": "string",
          "name": "contentID",
          "type": "string"
        },
        {
          "internalType": "string",
          "name": "tagContentID",
          "type": "string"
        },
        {
          "components": [
            {
              "internalType": "bool",
              "name": "permission",
              "type": "bool"
            },
            {
              "internalType": "uint256",
              "name": "deadline",
              "type": "uint256"
            },
            {
              "internalType": "uint8",
              "name": "v",
              "type": "uint8"
            },
            {
              "internalType": "bytes32",
              "name": "r",
              "type": "bytes32"
            },
            {
              "internalType": "bytes32",
              "name": "s",
              "type": "bytes32"
            }
          ],
          "internalType": "struct IAppUpgradeable.PermSig",
          "name": "permSig",
          "type": "tuple"
        }
      ],
      "name": "updateIdentityWithPermission",
      "outputs": [],
      "stateMutability": "payable",
      "type": "function"
    },
    {
      "inputs": [],
      "name": "versionRecipient",
      "outputs": [
        {
          "internalType": "string",
          "name": "",
          "type": "string"
        }
      ],
      "stateMutability": "view",
      "type": "function"
    }
  ],
  "bytecode": "0x608060405234801561001057600080fd5b5061539f806100206000396000f3fe60806040526004361061020f5760003560e01c80637da0a87711610118578063ab21ffa3116100a0578063e16efc6d1161006f578063e16efc6d146107f2578063e23b95bb1461080e578063eaaf77e61461082a578063ec164fc814610867578063f8ec5ca6146108a55761020f565b8063ab21ffa31461071e578063ad75be511461073a578063b8f7082614610777578063dd89602c146107b45761020f565b80639e3d4c7c116100e75780639e3d4c7c14610661578063a309e6e11461069e578063a45d428e146106ba578063a4febfe7146106c4578063a5b91482146106e05761020f565b80637da0a8771461057f57806396994c0a146105aa5780639a1fa01c146105e75780639df0160b146106245761020f565b80634c3a26161161019b57806355a0e0911161016a57806355a0e0911461046f578063572b6c05146104ac5780636dfbf43d146104e9578063713d34eb14610526578063763db67f146105635761020f565b80634c3a26161461037a5780634e351ac9146103b75780634f53b2d3146103f457806352af6073146104325761020f565b806341d204ad116101e257806341d204ad146102a2578063445eba5a146102cd578063485cc9551461030a578063486ff0cd146103335780634bfcf3491461035e5761020f565b806315ca3c20146102145780632b19851514610230578063305780251461025b57806331d4465b14610277575b600080fd5b61022e6004803603810190610229919061489a565b6108c1565b005b34801561023c57600080fd5b506102456109fe565b6040516102529190614cf7565b60405180910390f35b610275600480360381019061027091906149fb565b610a24565b005b34801561028357600080fd5b5061028c610ef0565b6040516102999190614cf7565b60405180910390f35b3480156102ae57600080fd5b506102b7610f1a565b6040516102c49190614e89565b60405180910390f35b3480156102d957600080fd5b506102f460048036038101906102ef9190614a4f565b610f27565b6040516103019190614d12565b60405180910390f35b34801561031657600080fd5b50610331600480360381019061032c91906147c9565b611100565b005b34801561033f57600080fd5b5061034861127c565b6040516103559190614db7565b60405180910390f35b610378600480360381019061037391906149fb565b61130a565b005b34801561038657600080fd5b506103a1600480360381019061039c919061474e565b61177a565b6040516103ae9190614e89565b60405180910390f35b3480156103c357600080fd5b506103de60048036038101906103d9919061496d565b611792565b6040516103eb9190614e89565b60405180910390f35b34801561040057600080fd5b5061041b60048036038101906104169190614919565b61184d565b604051610429929190614ee9565b60405180910390f35b34801561043e57600080fd5b50610459600480360381019061045491906149fb565b6119e5565b6040516104669190614e89565b60405180910390f35b34801561047b57600080fd5b506104966004803603810190610491919061496d565b611a20565b6040516104a39190614e89565b60405180910390f35b3480156104b857600080fd5b506104d360048036038101906104ce919061474e565b611adb565b6040516104e09190614d34565b60405180910390f35b3480156104f557600080fd5b50610510600480360381019061050b919061474e565b611b34565b60405161051d9190614e89565b60405180910390f35b34801561053257600080fd5b5061054d600480360381019061054891906149bf565b611b4c565b60405161055a9190614e89565b60405180910390f35b61057d6004803603810190610578919061489a565b611b71565b005b34801561058b57600080fd5b50610594611cbe565b6040516105a19190614cf7565b60405180910390f35b3480156105b657600080fd5b506105d160048036038101906105cc919061496d565b611ce7565b6040516105de9190614e89565b60405180910390f35b3480156105f357600080fd5b5061060e60048036038101906106099190614a4f565b611cff565b60405161061b9190614cf7565b60405180910390f35b34801561063057600080fd5b5061064b6004803603810190610646919061496d565b611d41565b6040516106589190614e89565b60405180910390f35b34801561066d57600080fd5b506106886004803603810190610683919061496d565b611d59565b6040516106959190614db7565b60405180910390f35b6106b860048036038101906106b3919061482e565b611eff565b005b6106c261231f565b005b6106de60048036038101906106d9919061474e565b612642565b005b3480156106ec57600080fd5b506107076004803603810190610702919061474e565b612be8565b604051610715929190614ee9565b60405180910390f35b6107386004803603810190610733919061474e565b612d8e565b005b34801561074657600080fd5b50610761600480360381019061075c9190614a8b565b61321b565b60405161076e9190614e89565b60405180910390f35b34801561078357600080fd5b5061079e6004803603810190610799919061496d565b613263565b6040516107ab9190614e67565b60405180910390f35b3480156107c057600080fd5b506107db60048036038101906107d69190614a4f565b613405565b6040516107e9929190614dd9565b60405180910390f35b61080c6004803603810190610807919061482e565b6134be565b005b61082860048036038101906108239190614a4f565b6138ac565b005b34801561083657600080fd5b50610851600480360381019061084c919061496d565b613d6b565b60405161085e9190614db7565b60405180910390f35b34801561087357600080fd5b5061088e6004803603810190610889919061474e565b613e1d565b60405161089c929190614f19565b60405180910390f35b6108bf60048036038101906108ba919061496d565b613e41565b005b6000600260009054906101000a900473ffffffffffffffffffffffffffffffffffffffff1673ffffffffffffffffffffffffffffffffffffffff1663e963c2bb6040518163ffffffff1660e01b815260040160206040518083038186803b15801561092b57600080fd5b505afa15801561093f573d6000803e3d6000fd5b505050506040513d601f19601f820116820180604052508101906109639190614777565b90508073ffffffffffffffffffffffffffffffffffffffff16633e46c8b083600001518685602001518660400151876060015188608001516040518763ffffffff1660e01b81526004016109bc96959493929190614d4f565b600060405180830381600087803b1580156109d657600080fd5b505af11580156109ea573d6000803e3d6000fd5b505050506109f884846134be565b50505050565b600260009054906101000a900473ffffffffffffffffffffffffffffffffffffffff1681565b600260009054906101000a900473ffffffffffffffffffffffffffffffffffffffff1673ffffffffffffffffffffffffffffffffffffffff1663363abcc96040518163ffffffff1660e01b815260040160206040518083038186803b158015610a8c57600080fd5b505afa158015610aa0573d6000803e3d6000fd5b505050506040513d601f19601f82011682018060405250810190610ac49190614996565b34146040518060400160405280601d81526020017f46656520496e73756666696369656e74206f7220496e636f727265637400000081525090610b3d576040517f08c379a0000000000000000000000000000000000000000000000000000000008152600401610b349190614db7565b60405180910390fd5b50600260009054906101000a900473ffffffffffffffffffffffffffffffffffffffff1673ffffffffffffffffffffffffffffffffffffffff1663531ebce56040518163ffffffff1660e01b8152600401602060405180830381600087803b158015610ba857600080fd5b505af1158015610bbc573d6000803e3d6000fd5b505050506040513d601f19601f82011682018060405250810190610be091906147a0565b73ffffffffffffffffffffffffffffffffffffffff166108fc349081150290604051600060405180830381858888f19350505050158015610c25573d6000803e3d6000fd5b50600260009054906101000a900473ffffffffffffffffffffffffffffffffffffffff1673ffffffffffffffffffffffffffffffffffffffff1663e432966c836040518263ffffffff1660e01b8152600401610c819190614e89565b602060405180830381600087803b158015610c9b57600080fd5b505af1158015610caf573d6000803e3d6000fd5b505050506040513d601f19601f82011682018060405250810190610cd39190614805565b6040518060400160405280601581526020017f4e6574776f726b204e6f7420417661696c61626c65000000000000000000000081525090610d4a576040517f08c379a0000000000000000000000000000000000000000000000000000000008152600401610d419190614db7565b60405180910390fd5b506000610d5d610d586141a8565b6141df565b90506000604051806040016040528084815260200185815250905080600b60008481526020019081526020016000206000600c60008681526020019081526020016000205481526020019081526020016000206000820151816000019080519060200190610dcc92919061441e565b50602082015181600101559050506001600c60008481526020019081526020016000206000828254610dfe9190615009565b92505081905550600c600083815260200190815260200160002054600d6000848152602001908152602001600020600086815260200190815260200160002084604051610e4b9190614ce0565b908152602001604051809103902081905550816005600086815260200190815260200160002084604051610e7f9190614ce0565b908152602001604051809103902081905550610e996141a8565b73ffffffffffffffffffffffffffffffffffffffff167f3c057423900c60b675b2fd673d4bdb12a44ddbf527a69130a0ac0a4578b70918848685604051610ee293929190614e09565b60405180910390a250505050565b6000600260009054906101000a900473ffffffffffffffffffffffffffffffffffffffff16905090565b6000600380549050905090565b606060008367ffffffffffffffff811115610f6b577f4e487b7100000000000000000000000000000000000000000000000000000000600052604160045260246000fd5b604051908082528060200260200182016040528015610fa457816020015b610f916144a4565b815260200190600190039081610f895790505b50905060005b848110156110f55760038185610fc09190615009565b81548110610ff7577f4e487b7100000000000000000000000000000000000000000000000000000000600052603260045260246000fd5b9060005260206000200160405180602001604052908160008201805461101c90615146565b80601f016020809104026020016040519081016040528092919081815260200182805461104890615146565b80156110955780601f1061106a57610100808354040283529160200191611095565b820191906000526020600020905b81548152906001019060200180831161107857829003601f168201915b5050505050815250508282815181106110d7577f4e487b7100000000000000000000000000000000000000000000000000000000600052603260045260246000fd5b602002602001018190525080806110ed906151a9565b915050610faa565b508091505092915050565b600060019054906101000a900460ff166111285760008054906101000a900460ff1615611131565b6111306142cc565b5b611170576040517f08c379a000000000000000000000000000000000000000000000000000000000815260040161116790614e47565b60405180910390fd5b60008060019054906101000a900460ff1615905080156111c0576001600060016101000a81548160ff02191690831515021790555060016000806101000a81548160ff0219169083151502179055505b6040518060400160405280600581526020017f322e322e300000000000000000000000000000000000000000000000000000008152506001908051906020019061120b92919061441e565b50611215836142dd565b81600260006101000a81548173ffffffffffffffffffffffffffffffffffffffff021916908373ffffffffffffffffffffffffffffffffffffffff16021790555080156112775760008060016101000a81548160ff0219169083151502179055505b505050565b6001805461128990615146565b80601f01602080910402602001604051908101604052809291908181526020018280546112b590615146565b80156113025780601f106112d757610100808354040283529160200191611302565b820191906000526020600020905b8154815290600101906020018083116112e557829003601f168201915b505050505081565b600260009054906101000a900473ffffffffffffffffffffffffffffffffffffffff1673ffffffffffffffffffffffffffffffffffffffff1663363abcc96040518163ffffffff1660e01b815260040160206040518083038186803b15801561137257600080fd5b505afa158015611386573d6000803e3d6000fd5b505050506040513d601f19601f820116820180604052508101906113aa9190614996565b34146040518060400160405280601d81526020017f46656520496e73756666696369656e74206f7220496e636f727265637400000081525090611423576040517f08c379a000000000000000000000000000000000000000000000000000000000815260040161141a9190614db7565b60405180910390fd5b50600260009054906101000a900473ffffffffffffffffffffffffffffffffffffffff1673ffffffffffffffffffffffffffffffffffffffff1663531ebce56040518163ffffffff1660e01b8152600401602060405180830381600087803b15801561148e57600080fd5b505af11580156114a2573d6000803e3d6000fd5b505050506040513d601f19601f820116820180604052508101906114c691906147a0565b73ffffffffffffffffffffffffffffffffffffffff166108fc349081150290604051600060405180830381858888f1935050505015801561150b573d6000803e3d6000fd5b50600061151e6115196141a8565b6141df565b90506000600d60008381526020019081526020016000206000858152602001908152602001600020836040516115549190614ce0565b90815260200160405180910390205490506000600c60008481526020019081526020016000205490508082101561162557600b600084815260200190815260200160002060006115ae60018461432190919063ffffffff16565b8152602001908152602001600020600b600085815260200190815260200160002060006115e560018661432190919063ffffffff16565b8152602001908152602001600020600082018160000190805461160790615146565b6116129291906144b7565b5060018201548160010155905050611678565b600b6000848152602001908152602001600020600061164e60018561432190919063ffffffff16565b81526020019081526020016000206000808201600061166d9190614544565b600182016000905550505b6001600c6000858152602001908152602001600020600082825461169c919061505f565b92505081905550600d60008481526020019081526020016000206000868152602001908152602001600020846040516116d59190614ce0565b90815260200160405180910390206000905560056000868152602001908152602001600020846040516117089190614ce0565b9081526020016040518091039020600090556117226141a8565b73ffffffffffffffffffffffffffffffffffffffff167f1cb9d0e26d226622eeab064ebf0d9b87efea320e1001c774b4f8ae7dcb00d97785878660405161176b93929190614e09565b60405180910390a25050505050565b60076020528060005260406000206000915090505481565b600080821180156117ba57506117b7600160038054905061433790919063ffffffff16565b82105b6040518060400160405280600b81526020017f4e6f204964656e7469747900000000000000000000000000000000000000000081525090611831576040517f08c379a00000000000000000000000000000000000000000000000000000000081526004016118289190614db7565b60405180910390fd5b50600c6000838152602001908152602001600020549050919050565b60006118576144a4565b6000600560008581526020019081526020016000208560405161187a9190614ce0565b908152602001604051809103902054905060008114806118b257506118ae600160038054905061433790919063ffffffff16565b8110155b156118e0578060405180602001604052806040518060200160405280600081525081525092509250506119de565b8060036118f760018461432190919063ffffffff16565b8154811061192e577f4e487b7100000000000000000000000000000000000000000000000000000000600052603260045260246000fd5b906000526020600020018060405180602001604052908160008201805461195490615146565b80601f016020809104026020016040519081016040528092919081815260200182805461198090615146565b80156119cd5780601f106119a2576101008083540402835291602001916119cd565b820191906000526020600020905b8154815290600101906020018083116119b057829003601f168201915b505050505081525050905092509250505b9250929050565b600560205281600052604060002081805160208101820180518482526020830160208501208183528095505050505050600091509150505481565b60008082118015611a485750611a45600160038054905061433790919063ffffffff16565b82105b6040518060400160405280600b81526020017f4e6f204964656e7469747900000000000000000000000000000000000000000081525090611abf576040517f08c379a0000000000000000000000000000000000000000000000000000000008152600401611ab69190614db7565b60405180910390fd5b5060096000838152602001908152602001600020549050919050565b60008060029054906101000a900473ffffffffffffffffffffffffffffffffffffffff1673ffffffffffffffffffffffffffffffffffffffff168273ffffffffffffffffffffffffffffffffffffffff16149050919050565b60046020528060005260406000206000915090505481565b600a602052816000526040600020602052806000526040600020600091509150505481565b611b81611b7c6141a8565b61434d565b6000600260009054906101000a900473ffffffffffffffffffffffffffffffffffffffff1673ffffffffffffffffffffffffffffffffffffffff1663e963c2bb6040518163ffffffff1660e01b815260040160206040518083038186803b158015611beb57600080fd5b505afa158015611bff573d6000803e3d6000fd5b505050506040513d601f19601f82011682018060405250810190611c239190614777565b90508073ffffffffffffffffffffffffffffffffffffffff16633e46c8b083600001518685602001518660400151876060015188608001516040518763ffffffff1660e01b8152600401611c7c96959493929190614d4f565b600060405180830381600087803b158015611c9657600080fd5b505af1158015611caa573d6000803e3d6000fd5b50505050611cb88484611eff565b50505050565b60008060029054906101000a900473ffffffffffffffffffffffffffffffffffffffff16905090565b600c6020528060005260406000206000915090505481565b60086020528160005260406000206020528060005260406000206000915091509054906101000a900473ffffffffffffffffffffffffffffffffffffffff1681565b60096020528060005260406000206000915090505481565b6060600082118015611d825750611d7f600160038054905061433790919063ffffffff16565b82105b6040518060400160405280600b81526020017f4e6f204964656e7469747900000000000000000000000000000000000000000081525090611df9576040517f08c379a0000000000000000000000000000000000000000000000000000000008152600401611df09190614db7565b60405180910390fd5b5060006003611e1260018561432190919063ffffffff16565b81548110611e49577f4e487b7100000000000000000000000000000000000000000000000000000000600052603260045260246000fd5b90600052602060002001604051806020016040529081600082018054611e6e90615146565b80601f0160208091040260200160405190810160405280929190818152602001828054611e9a90615146565b8015611ee75780601f10611ebc57610100808354040283529160200191611ee7565b820191906000526020600020905b815481529060010190602001808311611eca57829003601f168201915b50505050508152505090508060000151915050919050565b600260009054906101000a900473ffffffffffffffffffffffffffffffffffffffff1673ffffffffffffffffffffffffffffffffffffffff1663363abcc96040518163ffffffff1660e01b815260040160206040518083038186803b158015611f6757600080fd5b505afa158015611f7b573d6000803e3d6000fd5b505050506040513d601f19601f82011682018060405250810190611f9f9190614996565b34146040518060400160405280601d81526020017f46656520496e73756666696369656e74206f7220496e636f727265637400000081525090612018576040517f08c379a000000000000000000000000000000000000000000000000000000000815260040161200f9190614db7565b60405180910390fd5b50600260009054906101000a900473ffffffffffffffffffffffffffffffffffffffff1673ffffffffffffffffffffffffffffffffffffffff1663531ebce56040518163ffffffff1660e01b8152600401602060405180830381600087803b15801561208357600080fd5b505af1158015612097573d6000803e3d6000fd5b505050506040513d601f19601f820116820180604052508101906120bb91906147a0565b73ffffffffffffffffffffffffffffffffffffffff166108fc349081150290604051600060405180830381858888f19350505050158015612100573d6000803e3d6000fd5b5061211161210c6141a8565b61434d565b6000604051806020016040528084815250905060038190806001815401808255809150506001900390600052602060002001600090919091909150600082015181600001908051906020019061216892919061441e565b5050506003805490506004600061217d6141a8565b73ffffffffffffffffffffffffffffffffffffffff1673ffffffffffffffffffffffffffffffffffffffff168152602001908152602001600020819055506121c36141a8565b600860006003805490508152602001908152602001600020600080815260200190815260200160002060006101000a81548173ffffffffffffffffffffffffffffffffffffffff021916908373ffffffffffffffffffffffffffffffffffffffff160217905550600160096000600380549050815260200190815260200160002060008282546122539190615009565b925050819055506001600a60006003805490508152602001908152602001600020600061227e6141a8565b73ffffffffffffffffffffffffffffffffffffffff1673ffffffffffffffffffffffffffffffffffffffff168152602001908152602001600020819055506122c46141a8565b73ffffffffffffffffffffffffffffffffffffffff167f6ffd694880c59379c645631cd45bff242559c2cde9b745adb2d1e33a294ce086600380549050858560405161231293929190614ea4565b60405180910390a2505050565b600260009054906101000a900473ffffffffffffffffffffffffffffffffffffffff1673ffffffffffffffffffffffffffffffffffffffff1663363abcc96040518163ffffffff1660e01b815260040160206040518083038186803b15801561238757600080fd5b505afa15801561239b573d6000803e3d6000fd5b505050506040513d601f19601f820116820180604052508101906123bf9190614996565b34146040518060400160405280601d81526020017f46656520496e73756666696369656e74206f7220496e636f727265637400000081525090612438576040517f08c379a000000000000000000000000000000000000000000000000000000000815260040161242f9190614db7565b60405180910390fd5b50600260009054906101000a900473ffffffffffffffffffffffffffffffffffffffff1673ffffffffffffffffffffffffffffffffffffffff1663531ebce56040518163ffffffff1660e01b8152600401602060405180830381600087803b1580156124a357600080fd5b505af11580156124b7573d6000803e3d6000fd5b505050506040513d601f19601f820116820180604052508101906124db91906147a0565b73ffffffffffffffffffffffffffffffffffffffff166108fc349081150290604051600060405180830381858888f19350505050158015612520573d6000803e3d6000fd5b5060006006600061252f6141a8565b73ffffffffffffffffffffffffffffffffffffffff1673ffffffffffffffffffffffffffffffffffffffff1681526020019081526020016000206001015414156040518060400160405280600a81526020017f4e6f204d617070696e6700000000000000000000000000000000000000000000815250906125e6576040517f08c379a00000000000000000000000000000000000000000000000000000000081526004016125dd9190614db7565b60405180910390fd5b50600660006125f36141a8565b73ffffffffffffffffffffffffffffffffffffffff1673ffffffffffffffffffffffffffffffffffffffff16815260200190815260200160002060008082016000905560018201600090555050565b600260009054906101000a900473ffffffffffffffffffffffffffffffffffffffff1673ffffffffffffffffffffffffffffffffffffffff1663363abcc96040518163ffffffff1660e01b815260040160206040518083038186803b1580156126aa57600080fd5b505afa1580156126be573d6000803e3d6000fd5b505050506040513d601f19601f820116820180604052508101906126e29190614996565b34146040518060400160405280601d81526020017f46656520496e73756666696369656e74206f7220496e636f72726563740000008152509061275b576040517f08c379a00000000000000000000000000000000000000000000000000000000081526004016127529190614db7565b60405180910390fd5b50600260009054906101000a900473ffffffffffffffffffffffffffffffffffffffff1673ffffffffffffffffffffffffffffffffffffffff1663531ebce56040518163ffffffff1660e01b8152600401602060405180830381600087803b1580156127c657600080fd5b505af11580156127da573d6000803e3d6000fd5b505050506040513d601f19601f820116820180604052508101906127fe91906147a0565b73ffffffffffffffffffffffffffffffffffffffff166108fc349081150290604051600060405180830381858888f19350505050158015612843573d6000803e3d6000fd5b5060006128566128516141a8565b6141df565b905080600460008473ffffffffffffffffffffffffffffffffffffffff1673ffffffffffffffffffffffffffffffffffffffff16815260200190815260200160002054146040518060400160405280600a81526020017f4e6f204d617070696e670000000000000000000000000000000000000000000081525090612911576040517f08c379a00000000000000000000000000000000000000000000000000000000081526004016129089190614db7565b60405180910390fd5b506000600a600083815260200190815260200160002060008473ffffffffffffffffffffffffffffffffffffffff1673ffffffffffffffffffffffffffffffffffffffff16815260200190815260200160002054905060006009600084815260200190815260200160002054905080821015612a59576008600084815260200190815260200160002060006129b060018461432190919063ffffffff16565b815260200190815260200160002060009054906101000a900473ffffffffffffffffffffffffffffffffffffffff16600860008581526020019081526020016000206000612a0860018661432190919063ffffffff16565b815260200190815260200160002060006101000a81548173ffffffffffffffffffffffffffffffffffffffff021916908373ffffffffffffffffffffffffffffffffffffffff160217905550612ab4565b600860008481526020019081526020016000206000612a8260018561432190919063ffffffff16565b815260200190815260200160002060006101000a81549073ffffffffffffffffffffffffffffffffffffffff02191690555b6001600960008581526020019081526020016000206000828254612ad8919061505f565b92505081905550600a600084815260200190815260200160002060008573ffffffffffffffffffffffffffffffffffffffff1673ffffffffffffffffffffffffffffffffffffffff16815260200190815260200160002060009055600460008573ffffffffffffffffffffffffffffffffffffffff1673ffffffffffffffffffffffffffffffffffffffff168152602001908152602001600020600090558373ffffffffffffffffffffffffffffffffffffffff16612b956141a8565b73ffffffffffffffffffffffffffffffffffffffff167f556018e040574dae30953bba6215138d891c7065a33f7ec846d467e8a60dadd285604051612bda9190614e89565b60405180910390a350505050565b6000612bf26144a4565b6000600460008573ffffffffffffffffffffffffffffffffffffffff1673ffffffffffffffffffffffffffffffffffffffff1681526020019081526020016000205490506000811480612c5d5750612c59600160038054905061433790919063ffffffff16565b8110155b15612c8b57806040518060200160405280604051806020016040528060008152508152509250925050612d89565b806003612ca260018461432190919063ffffffff16565b81548110612cd9577f4e487b7100000000000000000000000000000000000000000000000000000000600052603260045260246000fd5b9060005260206000200180604051806020016040529081600082018054612cff90615146565b80601f0160208091040260200160405190810160405280929190818152602001828054612d2b90615146565b8015612d785780601f10612d4d57610100808354040283529160200191612d78565b820191906000526020600020905b815481529060010190602001808311612d5b57829003601f168201915b505050505081525050905092509250505b915091565b600260009054906101000a900473ffffffffffffffffffffffffffffffffffffffff1673ffffffffffffffffffffffffffffffffffffffff1663363abcc96040518163ffffffff1660e01b815260040160206040518083038186803b158015612df657600080fd5b505afa158015612e0a573d6000803e3d6000fd5b505050506040513d601f19601f82011682018060405250810190612e2e9190614996565b34146040518060400160405280601d81526020017f46656520496e73756666696369656e74206f7220496e636f727265637400000081525090612ea7576040517f08c379a0000000000000000000000000000000000000000000000000000000008152600401612e9e9190614db7565b60405180910390fd5b50600260009054906101000a900473ffffffffffffffffffffffffffffffffffffffff1673ffffffffffffffffffffffffffffffffffffffff1663531ebce56040518163ffffffff1660e01b8152600401602060405180830381600087803b158015612f1257600080fd5b505af1158015612f26573d6000803e3d6000fd5b505050506040513d601f19601f82011682018060405250810190612f4a91906147a0565b73ffffffffffffffffffffffffffffffffffffffff166108fc349081150290604051600060405180830381858888f19350505050158015612f8f573d6000803e3d6000fd5b506000612fa2612f9d6141a8565b6141df565b905080600760008473ffffffffffffffffffffffffffffffffffffffff1673ffffffffffffffffffffffffffffffffffffffff16815260200190815260200160002054146040518060400160405280600a81526020017f4e6f204d617070696e67000000000000000000000000000000000000000000008152509061305d576040517f08c379a00000000000000000000000000000000000000000000000000000000081526004016130549190614db7565b60405180910390fd5b50816008600083815260200190815260200160002060006009600085815260200190815260200160002054815260200190815260200160002060006101000a81548173ffffffffffffffffffffffffffffffffffffffff021916908373ffffffffffffffffffffffffffffffffffffffff16021790555060016009600083815260200190815260200160002060008282546130f89190615009565b925050819055506009600082815260200190815260200160002054600a600083815260200190815260200160002060008473ffffffffffffffffffffffffffffffffffffffff1673ffffffffffffffffffffffffffffffffffffffff1681526020019081526020016000208190555080600460008473ffffffffffffffffffffffffffffffffffffffff1673ffffffffffffffffffffffffffffffffffffffff168152602001908152602001600020819055508173ffffffffffffffffffffffffffffffffffffffff166131ca6141a8565b73ffffffffffffffffffffffffffffffffffffffff167fed79bc0da5afc1661b0c812c4ef8731f7cf65332cf66e110af5c983fe189c63b8360405161320f9190614e89565b60405180910390a35050565b600d6020528260005260406000206020528160005260406000208180516020810182018051848252602083016020850120818352809550505050505060009250925050505481565b61326b6144a4565b600082118015613292575061328f600160038054905061433790919063ffffffff16565b82105b6040518060400160405280600b81526020017f4e6f204964656e7469747900000000000000000000000000000000000000000081525090613309576040517f08c379a00000000000000000000000000000000000000000000000000000000081526004016133009190614db7565b60405180910390fd5b50600361332060018461432190919063ffffffff16565b81548110613357577f4e487b7100000000000000000000000000000000000000000000000000000000600052603260045260246000fd5b9060005260206000200160405180602001604052908160008201805461337c90615146565b80601f01602080910402602001604051908101604052809291908181526020018280546133a890615146565b80156133f55780601f106133ca576101008083540402835291602001916133f5565b820191906000526020600020905b8154815290600101906020018083116133d857829003601f168201915b5050505050815250509050919050565b600b6020528160005260406000206020528060005260406000206000915091505080600001805461343590615146565b80601f016020809104026020016040519081016040528092919081815260200182805461346190615146565b80156134ae5780601f10613483576101008083540402835291602001916134ae565b820191906000526020600020905b81548152906001019060200180831161349157829003601f168201915b5050505050908060010154905082565b600260009054906101000a900473ffffffffffffffffffffffffffffffffffffffff1673ffffffffffffffffffffffffffffffffffffffff1663363abcc96040518163ffffffff1660e01b815260040160206040518083038186803b15801561352657600080fd5b505afa15801561353a573d6000803e3d6000fd5b505050506040513d601f19601f8201168201806040525081019061355e9190614996565b34146040518060400160405280601d81526020017f46656520496e73756666696369656e74206f7220496e636f7272656374000000815250906135d7576040517f08c379a00000000000000000000000000000000000000000000000000000000081526004016135ce9190614db7565b60405180910390fd5b50600260009054906101000a900473ffffffffffffffffffffffffffffffffffffffff1673ffffffffffffffffffffffffffffffffffffffff1663531ebce56040518163ffffffff1660e01b8152600401602060405180830381600087803b15801561364257600080fd5b505af1158015613656573d6000803e3d6000fd5b505050506040513d601f19601f8201168201806040525081019061367a91906147a0565b73ffffffffffffffffffffffffffffffffffffffff166108fc349081150290604051600060405180830381858888f193505050501580156136bf573d6000803e3d6000fd5b5060006136d26136cd6141a8565b6141df565b9050600060036136ec60018461432190919063ffffffff16565b81548110613723577f4e487b7100000000000000000000000000000000000000000000000000000000600052603260045260246000fd5b9060005260206000200160405180602001604052908160008201805461374890615146565b80601f016020809104026020016040519081016040528092919081815260200182805461377490615146565b80156137c15780601f10613796576101008083540402835291602001916137c1565b820191906000526020600020905b8154815290600101906020018083116137a457829003601f168201915b50505050508152505090508381600001819052508060036137ec60018561432190919063ffffffff16565b81548110613823577f4e487b7100000000000000000000000000000000000000000000000000000000600052603260045260246000fd5b90600052602060002001600082015181600001908051906020019061384992919061441e565b509050506138556141a8565b73ffffffffffffffffffffffffffffffffffffffff167f6ffd694880c59379c645631cd45bff242559c2cde9b745adb2d1e33a294ce08683868660405161389e93929190614ea4565b60405180910390a250505050565b600260009054906101000a900473ffffffffffffffffffffffffffffffffffffffff1673ffffffffffffffffffffffffffffffffffffffff1663363abcc96040518163ffffffff1660e01b815260040160206040518083038186803b15801561391457600080fd5b505afa158015613928573d6000803e3d6000fd5b505050506040513d601f19601f8201168201806040525081019061394c9190614996565b34146040518060400160405280601d81526020017f46656520496e73756666696369656e74206f7220496e636f7272656374000000815250906139c5576040517f08c379a00000000000000000000000000000000000000000000000000000000081526004016139bc9190614db7565b60405180910390fd5b50600260009054906101000a900473ffffffffffffffffffffffffffffffffffffffff1673ffffffffffffffffffffffffffffffffffffffff1663531ebce56040518163ffffffff1660e01b8152600401602060405180830381600087803b158015613a3057600080fd5b505af1158015613a44573d6000803e3d6000fd5b505050506040513d601f19601f82011682018060405250810190613a6891906147a0565b73ffffffffffffffffffffffffffffffffffffffff166108fc349081150290604051600060405180830381858888f19350505050158015613aad573d6000803e3d6000fd5b50600260009054906101000a900473ffffffffffffffffffffffffffffffffffffffff1673ffffffffffffffffffffffffffffffffffffffff1663e432966c826040518263ffffffff1660e01b8152600401613b099190614e89565b602060405180830381600087803b158015613b2357600080fd5b505af1158015613b37573d6000803e3d6000fd5b505050506040513d601f19601f82011682018060405250810190613b5b9190614805565b6040518060400160405280601581526020017f4e6574776f726b204e6f7420417661696c61626c65000000000000000000000081525090613bd2576040517f08c379a0000000000000000000000000000000000000000000000000000000008152600401613bc99190614db7565b60405180910390fd5b50600060066000613be16141a8565b73ffffffffffffffffffffffffffffffffffffffff1673ffffffffffffffffffffffffffffffffffffffff16815260200190815260200160002060010154146040518060400160405280600e81526020017f4d617070696e672045786973747300000000000000000000000000000000000081525090613c97576040517f08c379a0000000000000000000000000000000000000000000000000000000008152600401613c8e9190614db7565b60405180910390fd5b50600060405180604001604052808481526020018381525090508060066000613cbe6141a8565b73ffffffffffffffffffffffffffffffffffffffff1673ffffffffffffffffffffffffffffffffffffffff1681526020019081526020016000206000820151816000015560208201518160010155905050613d176141a8565b73ffffffffffffffffffffffffffffffffffffffff167ff901209ca295732d741e333b0d6d706e074bbceaa4c1fcc6d61330fc7fceccc18484604051613d5e929190614f19565b60405180910390a2505050565b60038181548110613d7b57600080fd5b90600052602060002001600091509050806000018054613d9a90615146565b80601f0160208091040260200160405190810160405280929190818152602001828054613dc690615146565b8015613e135780601f10613de857610100808354040283529160200191613e13565b820191906000526020600020905b815481529060010190602001808311613df657829003601f168201915b5050505050905081565b60066020528060005260406000206000915090508060000154908060010154905082565b600260009054906101000a900473ffffffffffffffffffffffffffffffffffffffff1673ffffffffffffffffffffffffffffffffffffffff1663363abcc96040518163ffffffff1660e01b815260040160206040518083038186803b158015613ea957600080fd5b505afa158015613ebd573d6000803e3d6000fd5b505050506040513d601f19601f82011682018060405250810190613ee19190614996565b34146040518060400160405280601d81526020017f46656520496e73756666696369656e74206f7220496e636f727265637400000081525090613f5a576040517f08c379a0000000000000000000000000000000000000000000000000000000008152600401613f519190614db7565b60405180910390fd5b50600260009054906101000a900473ffffffffffffffffffffffffffffffffffffffff1673ffffffffffffffffffffffffffffffffffffffff1663531ebce56040518163ffffffff1660e01b8152600401602060405180830381600087803b158015613fc557600080fd5b505af1158015613fd9573d6000803e3d6000fd5b505050506040513d601f19601f82011682018060405250810190613ffd91906147a0565b73ffffffffffffffffffffffffffffffffffffffff166108fc349081150290604051600060405180830381858888f19350505050158015614042573d6000803e3d6000fd5b506000600760006140516141a8565b73ffffffffffffffffffffffffffffffffffffffff1673ffffffffffffffffffffffffffffffffffffffff16815260200190815260200160002054146040518060400160405280600e81526020017f4d617070696e672045786973747300000000000000000000000000000000000081525090614104576040517f08c379a00000000000000000000000000000000000000000000000000000000081526004016140fb9190614db7565b60405180910390fd5b5080600760006141126141a8565b73ffffffffffffffffffffffffffffffffffffffff1673ffffffffffffffffffffffffffffffffffffffff168152602001908152602001600020819055506141586141a8565b73ffffffffffffffffffffffffffffffffffffffff167fe23c7415861caee768c9ebc5ff486d4a038e546df4fe2b626f051de9010b0f7e8260405161419d9190614e89565b60405180910390a250565b600060146000369050101580156141c457506141c333611adb565b5b156141d857601436033560601c90506141dc565b3390505b90565b600080600460008473ffffffffffffffffffffffffffffffffffffffff1673ffffffffffffffffffffffffffffffffffffffff16815260200190815260200160002054905060008111801561424b5750614248600160038054905061433790919063ffffffff16565b81105b6040518060400160405280600b81526020017f4e6f204964656e74697479000000000000000000000000000000000000000000815250906142c2576040517f08c379a00000000000000000000000000000000000000000000000000000000081526004016142b99190614db7565b60405180910390fd5b5080915050919050565b60006142d73061440b565b15905090565b80600060026101000a81548173ffffffffffffffffffffffffffffffffffffffff021916908373ffffffffffffffffffffffffffffffffffffffff16021790555050565b6000818361432f919061505f565b905092915050565b600081836143459190615009565b905092915050565b6000600460008373ffffffffffffffffffffffffffffffffffffffff1673ffffffffffffffffffffffffffffffffffffffff16815260200190815260200160002054146040518060400160405280600f81526020017f4964656e7469747920457869737473000000000000000000000000000000000081525090614407576040517f08c379a00000000000000000000000000000000000000000000000000000000081526004016143fe9190614db7565b60405180910390fd5b5050565b600080823b905060008111915050919050565b82805461442a90615146565b90600052602060002090601f01602090048101928261444c5760008555614493565b82601f1061446557805160ff1916838001178555614493565b82800160010185558215614493579182015b82811115614492578251825591602001919060010190614477565b5b5090506144a09190614584565b5090565b6040518060200160405280606081525090565b8280546144c390615146565b90600052602060002090601f0160209004810192826144e55760008555614533565b82601f106144f65780548555614533565b8280016001018555821561453357600052602060002091601f016020900482015b82811115614532578254825591600101919060010190614517565b5b5090506145409190614584565b5090565b50805461455090615146565b6000825580601f106145625750614581565b601f0160209004906000526020600020908101906145809190614584565b5b50565b5b8082111561459d576000816000905550600101614585565b5090565b60006145b46145af84614f67565b614f42565b9050828152602081018484840111156145cc57600080fd5b6145d7848285615104565b509392505050565b6000813590506145ee816152df565b92915050565b600081519050614603816152df565b92915050565b600081519050614618816152f6565b92915050565b60008135905061462d8161530d565b92915050565b6000815190506146428161530d565b92915050565b60008135905061465781615324565b92915050565b600082601f83011261466e57600080fd5b813561467e8482602086016145a1565b91505092915050565b600060a0828403121561469957600080fd5b6146a360a0614f42565b905060006146b38482850161461e565b60008301525060206146c78482850161470f565b60208301525060406146db84828501614739565b60408301525060606146ef84828501614648565b606083015250608061470384828501614648565b60808301525092915050565b60008135905061471e8161533b565b92915050565b6000815190506147338161533b565b92915050565b60008135905061474881615352565b92915050565b60006020828403121561476057600080fd5b600061476e848285016145df565b91505092915050565b60006020828403121561478957600080fd5b6000614797848285016145f4565b91505092915050565b6000602082840312156147b257600080fd5b60006147c084828501614609565b91505092915050565b600080604083850312156147dc57600080fd5b60006147ea858286016145df565b92505060206147fb858286016145df565b9150509250929050565b60006020828403121561481757600080fd5b600061482584828501614633565b91505092915050565b6000806040838503121561484157600080fd5b600083013567ffffffffffffffff81111561485b57600080fd5b6148678582860161465d565b925050602083013567ffffffffffffffff81111561488457600080fd5b6148908582860161465d565b9150509250929050565b600080600060e084860312156148af57600080fd5b600084013567ffffffffffffffff8111156148c957600080fd5b6148d58682870161465d565b935050602084013567ffffffffffffffff8111156148f257600080fd5b6148fe8682870161465d565b925050604061490f86828701614687565b9150509250925092565b6000806040838503121561492c57600080fd5b600083013567ffffffffffffffff81111561494657600080fd5b6149528582860161465d565b92505060206149638582860161470f565b9150509250929050565b60006020828403121561497f57600080fd5b600061498d8482850161470f565b91505092915050565b6000602082840312156149a857600080fd5b60006149b684828501614724565b91505092915050565b600080604083850312156149d257600080fd5b60006149e08582860161470f565b92505060206149f1858286016145df565b9150509250929050565b60008060408385031215614a0e57600080fd5b6000614a1c8582860161470f565b925050602083013567ffffffffffffffff811115614a3957600080fd5b614a458582860161465d565b9150509250929050565b60008060408385031215614a6257600080fd5b6000614a708582860161470f565b9250506020614a818582860161470f565b9150509250929050565b600080600060608486031215614aa057600080fd5b6000614aae8682870161470f565b9350506020614abf8682870161470f565b925050604084013567ffffffffffffffff811115614adc57600080fd5b614ae88682870161465d565b9150509250925092565b6000614afe8383614c6e565b905092915050565b614b0f81615093565b82525050565b6000614b2082614fa8565b614b2a8185614fcb565b935083602082028501614b3c85614f98565b8060005b85811015614b785784840389528151614b598582614af2565b9450614b6483614fbe565b925060208a01995050600181019050614b40565b50829750879550505050505092915050565b614b93816150b7565b82525050565b614ba2816150c3565b82525050565b6000614bb382614fb3565b614bbd8185614fdc565b9350614bcd818560208601615113565b614bd68161527f565b840191505092915050565b6000614bec82614fb3565b614bf68185614fed565b9350614c06818560208601615113565b614c0f8161527f565b840191505092915050565b6000614c2582614fb3565b614c2f8185614ffe565b9350614c3f818560208601615113565b80840191505092915050565b6000614c58602e83614fed565b9150614c6382615290565b604082019050919050565b60006020830160008301518482036000860152614c8b8282614ba8565b9150508091505092915050565b60006020830160008301518482036000860152614cb58282614ba8565b9150508091505092915050565b614ccb816150ed565b82525050565b614cda816150f7565b82525050565b6000614cec8284614c1a565b915081905092915050565b6000602082019050614d0c6000830184614b06565b92915050565b60006020820190508181036000830152614d2c8184614b15565b905092915050565b6000602082019050614d496000830184614b8a565b92915050565b600060c082019050614d646000830189614b8a565b8181036020830152614d768188614be1565b9050614d856040830187614cc2565b614d926060830186614cd1565b614d9f6080830185614b99565b614dac60a0830184614b99565b979650505050505050565b60006020820190508181036000830152614dd18184614be1565b905092915050565b60006040820190508181036000830152614df38185614be1565b9050614e026020830184614cc2565b9392505050565b60006060820190508181036000830152614e238186614be1565b9050614e326020830185614cc2565b614e3f6040830184614cc2565b949350505050565b60006020820190508181036000830152614e6081614c4b565b9050919050565b60006020820190508181036000830152614e818184614c98565b905092915050565b6000602082019050614e9e6000830184614cc2565b92915050565b6000606082019050614eb96000830186614cc2565b8181036020830152614ecb8185614be1565b90508181036040830152614edf8184614be1565b9050949350505050565b6000604082019050614efe6000830185614cc2565b8181036020830152614f108184614c98565b90509392505050565b6000604082019050614f2e6000830185614cc2565b614f3b6020830184614cc2565b9392505050565b6000614f4c614f5d565b9050614f588282615178565b919050565b6000604051905090565b600067ffffffffffffffff821115614f8257614f81615250565b5b614f8b8261527f565b9050602081019050919050565b6000819050602082019050919050565b600081519050919050565b600081519050919050565b6000602082019050919050565b600082825260208201905092915050565b600082825260208201905092915050565b600082825260208201905092915050565b600081905092915050565b6000615014826150ed565b915061501f836150ed565b9250827fffffffffffffffffffffffffffffffffffffffffffffffffffffffffffffffff03821115615054576150536151f2565b5b828201905092915050565b600061506a826150ed565b9150615075836150ed565b925082821015615088576150876151f2565b5b828203905092915050565b600061509e826150cd565b9050919050565b60006150b0826150cd565b9050919050565b60008115159050919050565b6000819050919050565b600073ffffffffffffffffffffffffffffffffffffffff82169050919050565b6000819050919050565b600060ff82169050919050565b82818337600083830152505050565b60005b83811015615131578082015181840152602081019050615116565b83811115615140576000848401525b50505050565b6000600282049050600182168061515e57607f821691505b6020821081141561517257615171615221565b5b50919050565b6151818261527f565b810181811067ffffffffffffffff821117156151a05761519f615250565b5b80604052505050565b60006151b4826150ed565b91507fffffffffffffffffffffffffffffffffffffffffffffffffffffffffffffffff8214156151e7576151e66151f2565b5b600182019050919050565b7f4e487b7100000000000000000000000000000000000000000000000000000000600052601160045260246000fd5b7f4e487b7100000000000000000000000000000000000000000000000000000000600052602260045260246000fd5b7f4e487b7100000000000000000000000000000000000000000000000000000000600052604160045260246000fd5b6000601f19601f8301169050919050565b7f496e697469616c697a61626c653a20636f6e747261637420697320616c72656160008201527f647920696e697469616c697a6564000000000000000000000000000000000000602082015250565b6152e881615093565b81146152f357600080fd5b50565b6152ff816150a5565b811461530a57600080fd5b50565b615316816150b7565b811461532157600080fd5b50565b61532d816150c3565b811461533857600080fd5b50565b615344816150ed565b811461534f57600080fd5b50565b61535b816150f7565b811461536657600080fd5b5056fea2646970667358221220aeb6a5333593e3e353527074be51958d69769d6a126adefacdb9a095f17b68e864736f6c63430008040033",
  "linkReferences": {},
  "deployedLinkReferences": {}
}